:1000000019C033C032C031C030C02FC02EC02DC087
:100010002CC02BC02AC029C028C027C026C025C09C
:1000200024C023C022C021C020C01FC01EC01DC0CC
:100030001CC01BC011241FBECFEFD4E0DEBFCDBF5C
:1000400011E0A0E0B1E0E6EBF1E002C005900D9216
:10005000A030B107D9F711E0A0E0B1E001C01D92D6
:10006000A030B107E1F767D0A4C0CACF80E090E02C
:10007000000001962FEF8D3D9207D1F708958091F2
:10008000C000807808958091C000807208958091AA
:10009000C00087FFFCCF8091C6000895982F809103
:1000A000C00085FFFCCF9093C600089521E43EC0B8
:1000B0008091C00085FFFCCF2093C60080E090E0D7
:1000C000000001963FEF8D3D9307D1F780E090E06F
:1000D000000001963FEF8D3D9307D1F780E090E05F
:1000E000000001963FEF8D3D9307D1F780E090E04F
:1000F000000001963FEF8D3D9307D1F780E090E03F
:10010000000001963FEF8D3D9307D1F780E090E02E
:10011000000001963FEF8D3D9307D1F780E090E01E
:10012000000001963FEF8D3D9307D1F78091C0000D
:1001300087FFBECF089582E08AB98BE284B910921E
:10014000C50087E68093C40088E18093C10086E003
:100150008093C200299AAADF299840E050E080915C
:10016000C00087FFFCCF299A8091C00087FFFCCF99
:100170008091C6004F5F5F4F449F9001459F300DB7
:10018000549F300D11248091C00085FFFCCF409317
:10019000C6008091C00085FFFCCF2093C6008091EF
:1001A000C00085FFFCCF240F351F2093C60029987F
:0601B000D6CFF894FFCF4A
:00000001FF
